{
    "_format": "hh-sol-artifact-1",
    "contractName": "Credits",
    "sourceName": "contracts/CreditsToken.sol",
    "abi": [
        {
            "inputs": [
                {
                    "internalType": "string",
                    "name": "_name",
                    "type": "string"
                },
                {
                    "internalType": "string",
                    "name": "_symbol",
                    "type": "string"
                },
                {
                    "internalType": "uint256",
                    "name": "tp",
                    "type": "uint256"
                }
            ],
            "stateMutability": "nonpayable",
            "type": "constructor"
        },
        {
            "inputs": [
                {
                    "internalType": "address",
                    "name": "spender",
                    "type": "address"
                },
                {
                    "internalType": "uint256",
                    "name": "allowance",
                    "type": "uint256"
                },
                {
                    "internalType": "uint256",
                    "name": "needed",
                    "type": "uint256"
                }
            ],
            "name": "ERC20InsufficientAllowance",
            "type": "error"
        },
        {
            "inputs": [
                {
                    "internalType": "address",
                    "name": "sender",
                    "type": "address"
                },
                {
                    "internalType": "uint256",
                    "name": "balance",
                    "type": "uint256"
                },
                {
                    "internalType": "uint256",
                    "name": "needed",
                    "type": "uint256"
                }
            ],
            "name": "ERC20InsufficientBalance",
            "type": "error"
        },
        {
            "inputs": [
                {
                    "internalType": "address",
                    "name": "approver",
                    "type": "address"
                }
            ],
            "name": "ERC20InvalidApprover",
            "type": "error"
        },
        {
            "inputs": [
                {
                    "internalType": "address",
                    "name": "receiver",
                    "type": "address"
                }
            ],
            "name": "ERC20InvalidReceiver",
            "type": "error"
        },
        {
            "inputs": [
                {
                    "internalType": "address",
                    "name": "sender",
                    "type": "address"
                }
            ],
            "name": "ERC20InvalidSender",
            "type": "error"
        },
        {
            "inputs": [
                {
                    "internalType": "address",
                    "name": "spender",
                    "type": "address"
                }
            ],
            "name": "ERC20InvalidSpender",
            "type": "error"
        },
        {
            "anonymous": false,
            "inputs": [
                {
                    "indexed": true,
                    "internalType": "address",
                    "name": "owner",
                    "type": "address"
                },
                {
                    "indexed": true,
                    "internalType": "address",
                    "name": "spender",
                    "type": "address"
                },
                {
                    "indexed": false,
                    "internalType": "uint256",
                    "name": "value",
                    "type": "uint256"
                }
            ],
            "name": "Approval",
            "type": "event"
        },
        {
            "anonymous": false,
            "inputs": [
                {
                    "indexed": true,
                    "internalType": "address",
                    "name": "redeemer",
                    "type": "address"
                },
                {
                    "indexed": true,
                    "internalType": "uint256",
                    "name": "amount",
                    "type": "uint256"
                }
            ],
            "name": "TokensRedeemed",
            "type": "event"
        },
        {
            "anonymous": false,
            "inputs": [
                {
                    "indexed": true,
                    "internalType": "address",
                    "name": "from",
                    "type": "address"
                },
                {
                    "indexed": true,
                    "internalType": "address",
                    "name": "to",
                    "type": "address"
                },
                {
                    "indexed": false,
                    "internalType": "uint256",
                    "name": "value",
                    "type": "uint256"
                }
            ],
            "name": "Transfer",
            "type": "event"
        },
        {
            "inputs": [
                {
                    "internalType": "address",
                    "name": "owner",
                    "type": "address"
                },
                {
                    "internalType": "address",
                    "name": "spender",
                    "type": "address"
                }
            ],
            "name": "allowance",
            "outputs": [
                {
                    "internalType": "uint256",
                    "name": "",
                    "type": "uint256"
                }
            ],
            "stateMutability": "view",
            "type": "function"
        },
        {
            "inputs": [
                {
                    "internalType": "address",
                    "name": "spender",
                    "type": "address"
                },
                {
                    "internalType": "uint256",
                    "name": "value",
                    "type": "uint256"
                }
            ],
            "name": "approve",
            "outputs": [
                {
                    "internalType": "bool",
                    "name": "",
                    "type": "bool"
                }
            ],
            "stateMutability": "nonpayable",
            "type": "function"
        },
        {
            "inputs": [
                {
                    "internalType": "address",
                    "name": "account",
                    "type": "address"
                }
            ],
            "name": "balanceOf",
            "outputs": [
                {
                    "internalType": "uint256",
                    "name": "",
                    "type": "uint256"
                }
            ],
            "stateMutability": "view",
            "type": "function"
        },
        {
            "inputs": [],
            "name": "decimals",
            "outputs": [
                {
                    "internalType": "uint8",
                    "name": "",
                    "type": "uint8"
                }
            ],
            "stateMutability": "view",
            "type": "function"
        },
        {
            "inputs": [],
            "name": "getContractBalance",
            "outputs": [
                {
                    "internalType": "uint256",
                    "name": "",
                    "type": "uint256"
                }
            ],
            "stateMutability": "view",
            "type": "function"
        },
        {
            "inputs": [
                {
                    "internalType": "address",
                    "name": "target",
                    "type": "address"
                },
                {
                    "internalType": "uint256",
                    "name": "amount",
                    "type": "uint256"
                }
            ],
            "name": "mintToAddress",
            "outputs": [],
            "stateMutability": "payable",
            "type": "function"
        },
        {
            "inputs": [
                {
                    "internalType": "uint256",
                    "name": "numOfTokens",
                    "type": "uint256"
                }
            ],
            "name": "mintTokens",
            "outputs": [],
            "stateMutability": "payable",
            "type": "function"
        },
        {
            "inputs": [],
            "name": "name",
            "outputs": [
                {
                    "internalType": "string",
                    "name": "",
                    "type": "string"
                }
            ],
            "stateMutability": "view",
            "type": "function"
        },
        {
            "inputs": [],
            "name": "owner",
            "outputs": [
                {
                    "internalType": "address",
                    "name": "",
                    "type": "address"
                }
            ],
            "stateMutability": "view",
            "type": "function"
        },
        {
            "inputs": [
                {
                    "internalType": "address",
                    "name": "target",
                    "type": "address"
                },
                {
                    "internalType": "uint256",
                    "name": "amount",
                    "type": "uint256"
                }
            ],
            "name": "redeemCredits",
            "outputs": [],
            "stateMutability": "nonpayable",
            "type": "function"
        },
        {
            "inputs": [],
            "name": "symbol",
            "outputs": [
                {
                    "internalType": "string",
                    "name": "",
                    "type": "string"
                }
            ],
            "stateMutability": "view",
            "type": "function"
        },
        {
            "inputs": [],
            "name": "tokenPrice",
            "outputs": [
                {
                    "internalType": "uint256",
                    "name": "",
                    "type": "uint256"
                }
            ],
            "stateMutability": "view",
            "type": "function"
        },
        {
            "inputs": [],
            "name": "totalSupply",
            "outputs": [
                {
                    "internalType": "uint256",
                    "name": "",
                    "type": "uint256"
                }
            ],
            "stateMutability": "view",
            "type": "function"
        },
        {
            "inputs": [
                {
                    "internalType": "address",
                    "name": "to",
                    "type": "address"
                },
                {
                    "internalType": "uint256",
                    "name": "value",
                    "type": "uint256"
                }
            ],
            "name": "transfer",
            "outputs": [
                {
                    "internalType": "bool",
                    "name": "",
                    "type": "bool"
                }
            ],
            "stateMutability": "nonpayable",
            "type": "function"
        },
        {
            "inputs": [
                {
                    "internalType": "address",
                    "name": "from",
                    "type": "address"
                },
                {
                    "internalType": "address",
                    "name": "to",
                    "type": "address"
                },
                {
                    "internalType": "uint256",
                    "name": "value",
                    "type": "uint256"
                }
            ],
            "name": "transferFrom",
            "outputs": [
                {
                    "internalType": "bool",
                    "name": "",
                    "type": "bool"
                }
            ],
            "stateMutability": "nonpayable",
            "type": "function"
        },
        {
            "inputs": [
                {
                    "internalType": "address",
                    "name": "user",
                    "type": "address"
                }
            ],
            "name": "usersRedeemed",
            "outputs": [
                {
                    "internalType": "uint256",
                    "name": "",
                    "type": "uint256"
                }
            ],
            "stateMutability": "view",
            "type": "function"
        },
        {
            "inputs": [],
            "name": "withdrawl",
            "outputs": [],
            "stateMutability": "nonpayable",
            "type": "function"
        }
    ],
    "bytecode": "0x60806040523480156200001157600080fd5b506040516200224338038062002243833981810160405281019062000037919062000550565b828281600390816200004a91906200082b565b5080600490816200005c91906200082b565b50505033600560006101000a81548173ffffffffffffffffffffffffffffffffffffffff021916908373ffffffffffffffffffffffffffffffffffffffff16021790555080600681905550620000bc33620186a0620000c560201b60201c565b50505062000a49565b600073ffffffffffffffffffffffffffffffffffffffff168273ffffffffffffffffffffffffffffffffffffffff16036200013a5760006040517fec442f0500000000000000000000000000000000000000000000000000000000815260040162000131919062000957565b60405180910390fd5b6200014e600083836200015260201b60201c565b5050565b600073ffffffffffffffffffffffffffffffffffffffff168373ffffffffffffffffffffffffffffffffffffffff1603620001a85780600260008282546200019b9190620009a3565b925050819055506200027e565b60008060008573ffffffffffffffffffffffffffffffffffffffff1673ffffffffffffffffffffffffffffffffffffffff1681526020019081526020016000205490508181101562000237578381836040517fe450d38c0000000000000000000000000000000000000000000000000000000081526004016200022e93929190620009ef565b60405180910390fd5b8181036000808673ffffffffffffffffffffffffffffffffffffffff1673ffffffffffffffffffffffffffffffffffffffff16815260200190815260200160002081905550505b600073ffffffffffffffffffffffffffffffffffffffff168273ffffffffffffffffffffffffffffffffffffffff1603620002c9578060026000828254039250508190555062000316565b806000808473ffffffffffffffffffffffffffffffffffffffff1673ffffffffffffffffffffffffffffffffffffffff168152602001908152602001600020600082825401925050819055505b8173ffffffffffffffffffffffffffffffffffffffff168373ffffffffffffffffffffffffffffffffffffffff167fddf252ad1be2c89b69c2b068fc378daa952ba7f163c4a11628f55a4df523b3ef8360405162000375919062000a2c565b60405180910390a3505050565b6000604051905090565b600080fd5b600080fd5b600080fd5b600080fd5b6000601f19601f8301169050919050565b7f4e487b7100000000000000000000000000000000000000000000000000000000600052604160045260246000fd5b620003eb82620003a0565b810181811067ffffffffffffffff821117156200040d576200040c620003b1565b5b80604052505050565b60006200042262000382565b9050620004308282620003e0565b919050565b600067ffffffffffffffff821115620004535762000452620003b1565b5b6200045e82620003a0565b9050602081019050919050565b60005b838110156200048b5780820151818401526020810190506200046e565b60008484015250505050565b6000620004ae620004a88462000435565b62000416565b905082815260208101848484011115620004cd57620004cc6200039b565b5b620004da8482856200046b565b509392505050565b600082601f830112620004fa57620004f962000396565b5b81516200050c84826020860162000497565b91505092915050565b6000819050919050565b6200052a8162000515565b81146200053657600080fd5b50565b6000815190506200054a816200051f565b92915050565b6000806000606084860312156200056c576200056b6200038c565b5b600084015167ffffffffffffffff8111156200058d576200058c62000391565b5b6200059b86828701620004e2565b935050602084015167ffffffffffffffff811115620005bf57620005be62000391565b5b620005cd86828701620004e2565b9250506040620005e08682870162000539565b9150509250925092565b600081519050919050565b7f4e487b7100000000000000000000000000000000000000000000000000000000600052602260045260246000fd5b600060028204905060018216806200063d57607f821691505b602082108103620006535762000652620005f5565b5b50919050565b60008190508160005260206000209050919050565b60006020601f8301049050919050565b600082821b905092915050565b600060088302620006bd7fffffffffffffffffffffffffffffffffffffffffffffffffffffffffffffffff826200067e565b620006c986836200067e565b95508019841693508086168417925050509392505050565b6000819050919050565b60006200070c62000706620007008462000515565b620006e1565b62000515565b9050919050565b6000819050919050565b6200072883620006eb565b62000740620007378262000713565b8484546200068b565b825550505050565b600090565b6200075762000748565b620007648184846200071d565b505050565b5b818110156200078c57620007806000826200074d565b6001810190506200076a565b5050565b601f821115620007db57620007a58162000659565b620007b0846200066e565b81016020851015620007c0578190505b620007d8620007cf856200066e565b83018262000769565b50505b505050565b600082821c905092915050565b60006200080060001984600802620007e0565b1980831691505092915050565b60006200081b8383620007ed565b9150826002028217905092915050565b6200083682620005ea565b67ffffffffffffffff811115620008525762000851620003b1565b5b6200085e825462000624565b6200086b82828562000790565b600060209050601f831160018114620008a357600084156200088e578287015190505b6200089a85826200080d565b8655506200090a565b601f198416620008b38662000659565b60005b82811015620008dd57848901518255600182019150602085019450602081019050620008b6565b86831015620008fd5784890151620008f9601f891682620007ed565b8355505b6001600288020188555050505b505050505050565b600073ffffffffffffffffffffffffffffffffffffffff82169050919050565b60006200093f8262000912565b9050919050565b620009518162000932565b82525050565b60006020820190506200096e600083018462000946565b92915050565b7f4e487b7100000000000000000000000000000000000000000000000000000000600052601160045260246000fd5b6000620009b08262000515565b9150620009bd8362000515565b9250828201905080821115620009d857620009d762000974565b5b92915050565b620009e98162000515565b82525050565b600060608201905062000a06600083018662000946565b62000a156020830185620009de565b62000a246040830184620009de565b949350505050565b600060208201905062000a436000830184620009de565b92915050565b6117ea8062000a596000396000f3fe6080604052600436106100fe5760003560e01c80636f9fb98a1161009557806395d89b411161006457806395d89b411461032c57806397304ced14610357578063a9059cbb14610373578063dd62ed3e146103b0578063f1a73c3e146103ed576100fe565b80636f9fb98a1461026e57806370a08231146102995780637ff9b596146102d65780638da5cb5b14610301576100fe565b806321ca4236116100d157806321ca4236146101d357806323b872dd146101ef578063313ce5671461022c5780633aedfb8b14610257576100fe565b806306fdde0314610103578063095ea7b31461012e578063177cbfa11461016b57806318160ddd146101a8575b600080fd5b34801561010f57600080fd5b50610118610416565b6040516101259190611261565b60405180910390f35b34801561013a57600080fd5b506101556004803603810190610150919061131c565b6104a8565b6040516101629190611377565b60405180910390f35b34801561017757600080fd5b50610192600480360381019061018d9190611392565b6104cb565b60405161019f91906113ce565b60405180910390f35b3480156101b457600080fd5b506101bd610514565b6040516101ca91906113ce565b60405180910390f35b6101ed60048036038101906101e8919061131c565b61051e565b005b3480156101fb57600080fd5b50610216600480360381019061021191906113e9565b6105bc565b6040516102239190611377565b60405180910390f35b34801561023857600080fd5b506102416105eb565b60405161024e9190611458565b60405180910390f35b34801561026357600080fd5b5061026c6105f4565b005b34801561027a57600080fd5b50610283610755565b60405161029091906113ce565b60405180910390f35b3480156102a557600080fd5b506102c060048036038101906102bb9190611392565b6107ed565b6040516102cd91906113ce565b60405180910390f35b3480156102e257600080fd5b506102eb610835565b6040516102f891906113ce565b60405180910390f35b34801561030d57600080fd5b5061031661083f565b6040516103239190611482565b60405180910390f35b34801561033857600080fd5b50610341610869565b60405161034e9190611261565b60405180910390f35b610371600480360381019061036c919061149d565b6108fb565b005b34801561037f57600080fd5b5061039a6004803603810190610395919061131c565b61094d565b6040516103a79190611377565b60405180910390f35b3480156103bc57600080fd5b506103d760048036038101906103d291906114ca565b610970565b6040516103e491906113ce565b60405180910390f35b3480156103f957600080fd5b50610414600480360381019061040f919061131c565b6109f7565b005b60606003805461042590611539565b80601f016020809104026020016040519081016040528092919081815260200182805461045190611539565b801561049e5780601f106104735761010080835404028352916020019161049e565b820191906000526020600020905b81548152906001019060200180831161048157829003601f168201915b5050505050905090565b6000806104b3610b2f565b90506104c0818585610b37565b600191505092915050565b6000600760008373ffffffffffffffffffffffffffffffffffffffff1673ffffffffffffffffffffffffffffffffffffffff168152602001908152602001600020549050919050565b6000600254905090565b600560009054906101000a900473ffffffffffffffffffffffffffffffffffffffff1673ffffffffffffffffffffffffffffffffffffffff163373ffffffffffffffffffffffffffffffffffffffff16146105ae576040517f08c379a00000000000000000000000000000000000000000000000000000000081526004016105a5906115b6565b60405180910390fd5b6105b88282610b49565b5050565b6000806105c7610b2f565b90506105d4858285610bcb565b6105df858585610c5f565b60019150509392505050565b60006012905090565b600560009054906101000a900473ffffffffffffffffffffffffffffffffffffffff1673ffffffffffffffffffffffffffffffffffffffff163373ffffffffffffffffffffffffffffffffffffffff1614610684576040517f08c379a000000000000000000000000000000000000000000000000000000000815260040161067b906115b6565b60405180910390fd5b6000600560009054906101000a900473ffffffffffffffffffffffffffffffffffffffff1673ffffffffffffffffffffffffffffffffffffffff16476040516106cc90611607565b60006040518083038185875af1925050503d8060008114610709576040519150601f19603f3d011682016040523d82523d6000602084013e61070e565b606091505b5050905080610752576040517f08c379a000000000000000000000000000000000000000000000000000000000815260040161074990611668565b60405180910390fd5b50565b6000600560009054906101000a900473ffffffffffffffffffffffffffffffffffffffff1673ffffffffffffffffffffffffffffffffffffffff163373ffffffffffffffffffffffffffffffffffffffff16146107e7576040517f08c379a00000000000000000000000000000000000000000000000000000000081526004016107de906115b6565b60405180910390fd5b47905090565b60008060008373ffffffffffffffffffffffffffffffffffffffff1673ffffffffffffffffffffffffffffffffffffffff168152602001908152602001600020549050919050565b6000600654905090565b6000600560009054906101000a900473ffffffffffffffffffffffffffffffffffffffff16905090565b60606004805461087890611539565b80601f01602080910402602001604051908101604052809291908181526020018280546108a490611539565b80156108f15780601f106108c6576101008083540402835291602001916108f1565b820191906000526020600020905b8154815290600101906020018083116108d457829003601f168201915b5050505050905090565b600654341015610940576040517f08c379a0000000000000000000000000000000000000000000000000000000008152600401610937906116fa565b60405180910390fd5b61094a3382610b49565b50565b600080610958610b2f565b9050610965818585610c5f565b600191505092915050565b6000600160008473ffffffffffffffffffffffffffffffffffffffff1673ffffffffffffffffffffffffffffffffffffffff16815260200190815260200160002060008373ffffffffffffffffffffffffffffffffffffffff1673ffffffffffffffffffffffffffffffffffffffff16815260200190815260200160002054905092915050565b600560009054906101000a900473ffffffffffffffffffffffffffffffffffffffff1673ffffffffffffffffffffffffffffffffffffffff163373ffffffffffffffffffffffffffffffffffffffff1614610a87576040517f08c379a0000000000000000000000000000000000000000000000000000000008152600401610a7e906115b6565b60405180910390fd5b80600760008473ffffffffffffffffffffffffffffffffffffffff1673ffffffffffffffffffffffffffffffffffffffff1681526020019081526020016000206000828254610ad69190611749565b92505081905550610ae78282610d53565b808273ffffffffffffffffffffffffffffffffffffffff167fcdd4c59de26b3f8623e6012ab9bc32a995eda3452d89c941fc8af6b74276ad3860405160405180910390a35050565b600033905090565b610b448383836001610dd5565b505050565b600073ffffffffffffffffffffffffffffffffffffffff168273ffffffffffffffffffffffffffffffffffffffff1603610bbb5760006040517fec442f05000000000000000000000000000000000000000000000000000000008152600401610bb29190611482565b60405180910390fd5b610bc760008383610fac565b5050565b6000610bd78484610970565b90507fffffffffffffffffffffffffffffffffffffffffffffffffffffffffffffffff8114610c595781811015610c49578281836040517ffb8f41b2000000000000000000000000000000000000000000000000000000008152600401610c409392919061177d565b60405180910390fd5b610c5884848484036000610dd5565b5b50505050565b600073ffffffffffffffffffffffffffffffffffffffff168373ffffffffffffffffffffffffffffffffffffffff1603610cd15760006040517f96c6fd1e000000000000000000000000000000000000000000000000000000008152600401610cc89190611482565b60405180910390fd5b600073ffffffffffffffffffffffffffffffffffffffff168273ffffffffffffffffffffffffffffffffffffffff1603610d435760006040517fec442f05000000000000000000000000000000000000000000000000000000008152600401610d3a9190611482565b60405180910390fd5b610d4e838383610fac565b505050565b600073ffffffffffffffffffffffffffffffffffffffff168273ffffffffffffffffffffffffffffffffffffffff1603610dc55760006040517f96c6fd1e000000000000000000000000000000000000000000000000000000008152600401610dbc9190611482565b60405180910390fd5b610dd182600083610fac565b5050565b600073ffffffffffffffffffffffffffffffffffffffff168473ffffffffffffffffffffffffffffffffffffffff1603610e475760006040517fe602df05000000000000000000000000000000000000000000000000000000008152600401610e3e9190611482565b60405180910390fd5b600073ffffffffffffffffffffffffffffffffffffffff168373ffffffffffffffffffffffffffffffffffffffff1603610eb95760006040517f94280d62000000000000000000000000000000000000000000000000000000008152600401610eb09190611482565b60405180910390fd5b81600160008673ffffffffffffffffffffffffffffffffffffffff1673ffffffffffffffffffffffffffffffffffffffff16815260200190815260200160002060008573ffffffffffffffffffffffffffffffffffffffff1673ffffffffffffffffffffffffffffffffffffffff168152602001908152602001600020819055508015610fa6578273ffffffffffffffffffffffffffffffffffffffff168473ffffffffffffffffffffffffffffffffffffffff167f8c5be1e5ebec7d5bd14f71427d1e84f3dd0314c0f7b2291e5b200ac8c7c3b92584604051610f9d91906113ce565b60405180910390a35b50505050565b600073ffffffffffffffffffffffffffffffffffffffff168373ffffffffffffffffffffffffffffffffffffffff1603610ffe578060026000828254610ff29190611749565b925050819055506110d1565b60008060008573ffffffffffffffffffffffffffffffffffffffff1673ffffffffffffffffffffffffffffffffffffffff1681526020019081526020016000205490508181101561108a578381836040517fe450d38c0000000000000000000000000000000000000000000000000000000081526004016110819392919061177d565b60405180910390fd5b8181036000808673ffffffffffffffffffffffffffffffffffffffff1673ffffffffffffffffffffffffffffffffffffffff16815260200190815260200160002081905550505b600073ffffffffffffffffffffffffffffffffffffffff168273ffffffffffffffffffffffffffffffffffffffff160361111a5780600260008282540392505081905550611167565b806000808473ffffffffffffffffffffffffffffffffffffffff1673ffffffffffffffffffffffffffffffffffffffff168152602001908152602001600020600082825401925050819055505b8173ffffffffffffffffffffffffffffffffffffffff168373ffffffffffffffffffffffffffffffffffffffff167fddf252ad1be2c89b69c2b068fc378daa952ba7f163c4a11628f55a4df523b3ef836040516111c491906113ce565b60405180910390a3505050565b600081519050919050565b600082825260208201905092915050565b60005b8381101561120b5780820151818401526020810190506111f0565b60008484015250505050565b6000601f19601f8301169050919050565b6000611233826111d1565b61123d81856111dc565b935061124d8185602086016111ed565b61125681611217565b840191505092915050565b6000602082019050818103600083015261127b8184611228565b905092915050565b600080fd5b600073ffffffffffffffffffffffffffffffffffffffff82169050919050565b60006112b382611288565b9050919050565b6112c3816112a8565b81146112ce57600080fd5b50565b6000813590506112e0816112ba565b92915050565b6000819050919050565b6112f9816112e6565b811461130457600080fd5b50565b600081359050611316816112f0565b92915050565b6000806040838503121561133357611332611283565b5b6000611341858286016112d1565b925050602061135285828601611307565b9150509250929050565b60008115159050919050565b6113718161135c565b82525050565b600060208201905061138c6000830184611368565b92915050565b6000602082840312156113a8576113a7611283565b5b60006113b6848285016112d1565b91505092915050565b6113c8816112e6565b82525050565b60006020820190506113e360008301846113bf565b92915050565b60008060006060848603121561140257611401611283565b5b6000611410868287016112d1565b9350506020611421868287016112d1565b925050604061143286828701611307565b9150509250925092565b600060ff82169050919050565b6114528161143c565b82525050565b600060208201905061146d6000830184611449565b92915050565b61147c816112a8565b82525050565b60006020820190506114976000830184611473565b92915050565b6000602082840312156114b3576114b2611283565b5b60006114c184828501611307565b91505092915050565b600080604083850312156114e1576114e0611283565b5b60006114ef858286016112d1565b9250506020611500858286016112d1565b9150509250929050565b7f4e487b7100000000000000000000000000000000000000000000000000000000600052602260045260246000fd5b6000600282049050600182168061155157607f821691505b6020821081036115645761156361150a565b5b50919050565b7f435245444954533a206f6e6c79206f776e65722066756e6374696f6e00000000600082015250565b60006115a0601c836111dc565b91506115ab8261156a565b602082019050919050565b600060208201905081810360008301526115cf81611593565b9050919050565b600081905092915050565b50565b60006115f16000836115d6565b91506115fc826115e1565b600082019050919050565b6000611612826115e4565b9150819050919050565b7f6661696c656420746f2077697468647261776c2066756e647300000000000000600082015250565b60006116526019836111dc565b915061165d8261161c565b602082019050919050565b6000602082019050818103600083015261168181611645565b9050919050565b7f435245444954533a20696e76616c696420657468657220616d6f756e7420736560008201527f6e74000000000000000000000000000000000000000000000000000000000000602082015250565b60006116e46022836111dc565b91506116ef82611688565b604082019050919050565b60006020820190508181036000830152611713816116d7565b9050919050565b7f4e487b7100000000000000000000000000000000000000000000000000000000600052601160045260246000fd5b6000611754826112e6565b915061175f836112e6565b92508282019050808211156117775761177661171a565b5b92915050565b60006060820190506117926000830186611473565b61179f60208301856113bf565b6117ac60408301846113bf565b94935050505056fea26469706673582212208d2c586aee5da4262750b212f31fedb73b6104700ab43d737032a34a67e46f0964736f6c63430008140033",
    "linkReferences": {},
    "deployedLinkReferences": {}
}